:06000000020083020DE185
:01000B0032C2
:0100130032BA
:01001B0032B2
:0100230032AA
:01002B0032A2
:01003300329A
:01003B003292
:01004300328A
:01004B003282
:01005300327A
:01005B003272
:01006300326A
:01006B003262
:01007300325A
:03007B00020D046F
:0300E50002007E98
:05007E0012016780FE85
:1000E800858210E4B5100280077401B510088003FA
:1000F800020AC802119022120CB3E582FA7001229A
:10010800E5107016BA01028009BA030975100102D8
:100118001190D200228A82020B3E7401B51016BAE1
:1001280001028009BA0309751000020AC8D2002228
:100138008A8202134322AA82AB83ACF0758200C084
:1001480002C003C004120657C284851182851319A0
:100158001206341214F8158115811581D28422C231
:100168000075100075C680E5C620E6FB75FE031213
:100178000F21D291C290120E4090F00075F000123B
:100188000E52E582700A9000641201E1B29080E993
:1001980090F015E4F0C291D29075E10490006412D9
:1001A80001E190F00075F000120ED6120E33E582D0
:1001B80060089000641201E180F175E10490006428
:0501C8001201E180AD11
:101B1400000000000000005E0000000E000E00281F
:101B24007C287C2808547C542026100864002854FF
:101B340028400000000E0000003C42000000423C2F
:101B44000000005438540010107C101000806020F5
:101B54000010101010000060600000201008040045
:101B6400003C423C0000447E40004462524C00224F
:101B74004A4A360018147E10002E4A4A32003C4A63
:101B84004A300002621A0600344A4A34000C5252A7
:101B94003C00006C6C0000806C2C00000010284499
:101BA40000282828280000442810000004520C00B3
:101BB4003C425A1C007C12127C007E4A4A34003C8F
:101BC400424224007E42423C007E4A4A42007E0A4F
:101BD4000A02003C425274007E08087E0000427EE5
:101BE40042002040403E007E182442007E40404097
:101BF400007E0C0C7E007E0C307E003C42423C0099
:101C04007E12120C003C6242BC007E12324C002454
:101C14004A52240000027E02003E40403E001E6004
:101C2400601E007E30307E006618186600000E705C
:101C34000E0062524A4600007E4242000408102010
:101C4400000042427E000004020400404040400084
:101C5400000204000030482878007E4848300030F4
:101C6400484800003048487E003068581000107C16
:101C740012040050A8A898007E0808700000487A52
:101C840040000040807A007E1028400000427E40E0
:101C94000078101870007808087000304848300048
:101CA400F848483000304848F800780808100050D8
:101CB40058682800083E4840003840407800003802
:101CC4004038007860607800483030480018A04000
:101CD4003800486858480000083C420000007E0074
:101CE4000000423C080053454E44494E47204D53A2
:101CF4004700434F524E204D554646494E002E0054
:101D040053454E54212057414954494E472E2E00E5
:101D1400256420627974657320525353493D2564C8
:101D2400204C51493D253032580053454E44494ECC
:101D34004720414E4F5448455200504F4F500025C4
:0E1D4400642025642025640053454E54210080
:1001CD0053BEFBE5BE30E6FB53C6B8E5C620E6FBE5
:1001DD0043BE0422AA82AB831ABAFF011BC3E49A61
:1001ED0074808BF063F08095F0500F7CB07D041C13
:1001FD00BCFF011DEC4D70F780DE22C374808515A8
:10020D00F063F08095F05002151522C3E51564805A
:10021D008516F063F08095F05002051522AA823004
:10022D0002078A82120CC7AA82C3E516648094C99C
:10023D005042E51604FBC3EB64808515F063F08036
:10024D0095F0401FEB24DEFCE434F0FDEB14FE24AE
:10025D00DEF582E434F0F583E0FF8C828D83F08E41
:10026D000380D3E51524DEF582E434F0F583EAF05E
:10027D000515051622C374808515F063F08095F081
:10028D005044AA15E516FB3395E0FC0BBB00010CA1
:10029D00EAFD3395E0FEC3ED9BEE64808CF063F0D8
:1002AD008095F0501DEA1424DEFBE434F0FCEA24C2
:1002BD00DEF582E434F0F583E0FD8B828C83F00A69
:1002CD0080C2151515162275150075160090F0DEF5
:1002DD00E4F022C2847582001206577519007582EA
:1002ED00061206347452C0E0741DC0E07480C0E084
:1002FD001214F815811581158190F0DE75F000123C
:10030D000ED67519007582071206347582381206DD
:10031D00B0D284120E33E58260129000C81201E152
:10032D00C28475823D1206B0D28480E79001F4122A
:10033D0001E1C2847582441206B0D2849001F41298
:10034D0001E17517001202D47582000200E8120255
:10035D00D4C20275170022751800120677C2847573
:10036D0082001206577519007582001206347460EA
:10037D00C0E0741DC0E07480C0E01214F815811542
:10038D0081158190F0DE75F000121AA6AB827C010A
:10039D00C3EC6480948840030204D0EBFD3395E0F8
:1003AD00FE74012DFFE43EF8E518F93395E0FAC32C
:1003BD00E99FEA648088F063F08095F040030204C1
:1003CD00D07519008C82C003C004C005C00612068A
:1003DD0034D006D005D004D00374012DFDE43EFACF
:1003ED007E00AF18C3EE6480949A40030204CAEFF6
:1003FD00F83395E0F9C3E89DE964808AF063F080F5
:10040D0095F040030204CAEFB50353EFB515028012
:10041D00030204C5300224751A8075825EC002C0C5
:10042D0003C004C005C006C00712070BD007D006D5
:10043D00D005D004D003D0020204C5751A80758290
:10044D0020C002C003C004C005C006C00712070BC0
:10045D00D007D006D005D004D003D002805AEFB516
:10046D00152EEF24DEF582E434F0F583E0F8751AED
:10047D00808882C002C003C004C005C006C0071238
:10048D00070BD007D006D005D004D003D0028028AA
:10049D00EF24DEF582E434F0F583E0F582C002C08E
:1004AD0003C004C005C006C0071206B0D007D006B1
:1004BD00D005D004D003D0020E0F0203F18F180C1B
:1004CD0002039D7401B5171E75190075820512067C
:1004DD0034747AC0E0741DC0E07480C0E01214F86A
:1004ED0015811581158130021E751900758207124F
:1004FD000634748DC0E0741DC0E07480C0E0121429
:10050D00F8158115811581D28422AA82E517600321
:10051D0002058DBA0A02804CBA2002802EBA2C0236
:10052D008029BA3C028018BA3E028019BA83028033
:10053D0027BA8402801DBA86351202820203641224
:10054D0002080203641202180203648A8212022A4C
:10055D00020364B20202036430024175823012025A
:10056D002A020364751701C002120364D002BA4156
:10057D00004029EA24A540248A8212022A0203643B
:10058D007401B51717BA4E02800CBA590F751702C0
:0D059D001203640202E075170002036422DD
:101D52005472616E736D697474696E672100456EA9
:101D620074657220796F7572206D65737361676532
:101D72002062656C6F773A005265616C6C792073F2
:101D8200656E643F2028592F4E2900616C74206BC8
:071D9200657973206F6E00FC
:1005AA0043F32843FD1443FE0275FF1822758600A3
:1005BA0075C2AA75C530228582C1E58630E1FB5332
:1005CA0086FD22D2820205C1C2820205C1C2919071
:1005DA0000011201E1D291C2847582E21205D2753C
:1005EA0082241205D27582811205D27582601205A3
:1005FA00D27582E61205D27582001205D275822F53
:10060A001205D27582A11205D27582AF1205D27572
:10061A0082A41205D2D284227582AC1205D27582C6
:10062A00AE1205D27582A50205D2AA8274B02AF545
:10063A00821205D2740F5519F5821205D2E519C432
:10064A00540FFA740F5A2410F5820205D2AA827442
:10065A003F5AF5F0744045F0F5820205D2AA827439
:10066A00015AF5F074A645F0F5820205D2C28475E6
:10067A0082001206577582001206677A00EA24F68B
:10068A0040217519008A82C002120634D0027B8486
:10069A00758200C002C0031205CDD003D002DBF080
:1006AA000A80DAD28422AA8253027FC3EA6480943F
:1006BA00A0404DEA24E0C2D575F00530E704B2D572
:1006CA00F404A430D50AF42401C5F0F43400C5F0CA
:1006DA00FAABF07C00BC05005026EA2499FDEB3405
:1006EA001DFEEC2DF582E43EF583E493F582C0020B
:1006FA00C003C0041205CDD004D003D0020C80D5AB
:10070A0022AA8253027FC3EA648094A04051EA2459
:10071A00E0C2D575F00530E704B2D5F404A430D5AB
:10072A000AF42401C5F0F43400C5F0FAABF07C00F9
:10073A00BC0500502AEA2499FDEB341DFEEC2DF588
:10074A0082E43EF583E493FDE51A4DF582C002C0CA
:10075A0003C0041205CDD004D003D0020C80D122EC
:101D9900000000000000005E0000000E000E002898
:101DA9007C287C2808547C54202610086400285478
:101DB90028400000000E0000003C42000000423CA8
:101DC9000000005438540010107C1010008060206E
:101DD90000101010100000606000002010080400BE
:101DE900003C423C0000447E40004462524C0022C8
:101DF9004A4A360018147E10002E4A4A32003C4ADC
:101E09004A300002621A0600344A4A34000C52521F
:101E19003C00006C6C0000806C2C00000010284411
:101E290000282828280000442810000004520C002B
:101E39003C425A1C007C12127C007E4A4A34003C07
:101E4900424224007E42423C007E4A4A42007E0AC7
:101E59000A02003C425274007E08087E0000427E5D
:101E690042002040403E007E182442007E4040400F
:101E7900007E0C0C7E007E0C307E003C42423C0011
:101E89007E12120C003C6242BC007E12324C0024CD
:101E99004A52240000027E02003E40403E001E607D
:101EA900601E007E30307E006618186600000E70D5
:101EB9000E0062524A4600007E4242000408102089
:101EC900000042427E0000040204004040404000FD
:101ED900000204000030482878007E48483000306D
:101EE900484800003048487E003068581000107C8F
:101EF90012040050A8A898007E0808700000487ACB
:101F090040000040807A007E1028400000427E4058
:101F190000781018700078080870003048483000C0
:101F2900F848483000304848F80078080810005050
:101F390058682800083E484000384040780000387A
:101F49004038007860607800483030480018A04078
:101F59003800486858480000083C420000007E00EC
:061F69000000423C0800EC
:10076A0085822685832785F028121AA6AD828D29CF
:10077A00C203C284758200120657E52924E64002A4
:10078A00D203751900852582120634752A0078006D
:10079A0074E7252A404DE895295048300322E82578
:1007AA0026F9E43527FFAD2889828F838DF0121A46
:1007BA00BEF9751A808982C00012070BD000801C0E
:1007CA00E82526FDE43527FFA9288D828F8389F045
:1007DA00121ABEF582C0001206B0D000052A088897
:1007EA000680AD880630031BAD2ABD19005014756A
:1007FA001A80758220C005C00612070BD006D005E4
:10080A000D80E705257582FFC0061205CD75828029
:10081A001205CDD006744A2526FDE43527FFA828FF
:10082A008D828F8388F0121ABEFD30E122ED30E20C
:10083A000F751A8075824DC00612070BD006802FDD
:10084A00751A8075823FC00612070BD0068020ED0C
:10085A0030E00F751A8075822AC00612070BD0067F
:10086A00800D751A80758220C00612070BD006AD5E
:10087A0025BD0800400302095DC3EE952940030225
:10088A00095DAF297800EF24E6FFE834FFF88E010E
:10089A007A00C3E99FEA648088F063F08095F040AB
:1008AA0002D2037519008D82C005C006120634D023
:1008BA0006D0057A008E03BA1A00505DC3EB95295B
:1008CA00505730032AEB2526FCE43527FFA8288C4D
:1008DA00828F8388F0121ABEFC751A808C82C0023D
:1008EA00C003C00512070BD005D003D0028024EB49
:1008FA002526FCE43527FFA8288C828F8388F012EE
:10090A001ABEF582C002C003C0051206B0D005D0D7
:10091A0003D0020A0B8B06809E8B06300331BA1A6B
:10092A00005018751A80758220C002C005C00612D0
:10093A00070BD006D005D0020A80E3758280C00575
:10094A00C0061205CD7582801205CDD006D0050DE0
:10095A0002087BD2848D8222E524B5220122E52277
:10096A0075F04BA42428FA74F135F0FB744A2AFA7C
:10097A00E43BFB8A828B83E0FC5304FE8A828B83EE
:10098A00ECF0AA227B008A828B83A3754D16E4F5CC
:10099A004E121ADAAA828A2222E523B5220122AA53
:1009AA00227B0074152AF582E43BF583754D16E423
:1009BA00F54E121ADAAA828A2222754D6F754E1FD7
:1009CA00754F8090F5D875F0001213D690F622E490
:1009DA00F0754D96754E1F754F8090F62375F00091
:1009EA001213D690F66DE4F0754DC2754E1F754F11
:1009FA008090F66E75F0001213D690F6B87407F070
:100A0A00754DE7754E1F754F8090F6B975F0001257
:100A1A0013D690F7037401F0754D2D754E20754F5E
:100A2A008090F70475F0001213D690F74E7401F017
:100A3A00754D53754E20754F8090F74F75F0001223
:100A4A0013D690F7997403F0754D6B754E20754F58
:100A5A008090F12875F0001213D690F1727401F0AB
:100A6A00754D98754E20754F8090F17375F0001290
:100A7A0013D690F1BD7401F0754DCB754E20754FAC
:100A8A008090F1BE75F0001213D690F2087401F04E
:100A9A00754DEE754E20754F8090F20975F0001273
:100AAA0013D690F2537401F075221275231075242F
:100ABA0003227522007523007524000209C4120658
:100ACA00777A00AB22AC247D008C828D83A3754D8E
:100ADA0016E4F54EC002C003121ADAAC82AD83D016
:100AEA0003D0028B067F00EEB50405EFB50501229F
:100AFA00BA0800503EEB75F04BA42428FC74F1357B
:100B0A00F0FD78008A258C828D8388F0C006C007A4
:100B1A0012076AAA82D007D0068E828F83A3754DE8
:100B2A0016E4F54EC002121ADAAC82AD83D0028CFA
:100B3A0003809222AA82BA3C02800FBA3E02801037
:100B4A00BA5E028005BA870E80061209A3020AC895
:070B5A00120962020AC82221
:101F6F004D415454204953204120444F524B2E2071
:101F7F0020414C534F20484520534D454C4C532046
:101F8F0046554E4E592E0044494E4E45522053450C
:101F9F005256494E4720494E203330204D494E5519
:101FAF005445532C20534C4F5020464F5220414CF8
:101FBF004C2E004D415353495645205748495445DF
:101FCF004F555420434F4D494E472C2054414B45BC
:101FDF0020434F564552210054484953204D4553F5
:101FEF0053414745204953204C4F4E472C20544FC7
:101FFF002054455354204F5554204C4F4E47204D9D
:10200F00455353414745532E2020495420495320CF
:10201F0033204C494E4553204C4F4E472E005357BB
:10202F00454554204C45495453484F57205354412C
:10203F005254494E4720494E203232204D494E5579
:10204F005445530057494C4420454C4D4F2048416F
:10205F00532041505045415245442E00534E454C5C
:10206F004C412043414D452042592054484520447E
:10207F004F4D4520414E442041544520414C4C206A
:10208F0054484520464F4F4400414E594F4E45202E
:10209F0057414E5420544F2054494D4520545241DE
:1020AF0056454C3F20204C454156494E4720352040
:1020BF004D494E555445532041474F00544F494CBD
:1020CF004554532041524520414C4C2046554C4CD1
:1020DF002023504F4F5054524F55424C45530048B8
:1020EF00454E5259204841532041205354494E4B9D
:0720FF005920425554540022
:100B610053FD3D53FE034380C24390FC90000112AC
:100B710001E17A007B00BB08004003020C85EBFC1D
:100B810024F84057EB2B2B900B8C73020BA4020B18
:100B9100A6020BAE020BB6020BBE020BC6020BCEB7
:100BA100020BD6803643FD025380FD802E43FE04A6
:100BB1005390FB802643FE085390F7801E43FE109E
:100BC1005390EF801643FE205390DF800E43FE408A
:100BD1005390BF800643FE8053907FAD807E00ED31
:100BE100F4FDEEF4FEED30E1027C01AD907E00ED0E
:100BF100F4FDEEF4FEED30E2027C02AD907E00EDFC
:100C0100F4FDEEF4FEED30E3027C03AD907E00EDE9
:100C1100F4FDEEF4FEED30E4027C04AD907E00EDD7
:100C2100F4FDEEF4FEED30E5027C05AD907E00EDC5
:100C3100F4FDEEF4FEED30E6027C06AD907E00EDB3
:100C4100F4FDEEF4FEED30E7027C07AD807E00EDB1
:100C5100F4FDEEF4FEED30E6027C08AD807E00EDA1
:100C6100F4FDEEF4FEED30E7027C09ECB503028001
:100C71000DEA75F00AA42C90212093F582220B8BAA
:100C810002020B7775820022120B61AA82C0021246
:100C91000B61AB82D002EAB503028007120B61AA95
:100CA1008280EA53FD3D53FE034380C24390FC8A98
:100CB1008222120C89E582FAB51B0280048A1B800C
:100CC100027A008A8222AA82BA2C0475823F22BA51
:100CD10041004014EA24A5400FEA24C5F582E4341A
:100CE10021F583E493F58222BA8304758230228A46
:020CF10082225D
:1021060034293936335C5F3A2D3B22272E212B3D6D
:102116003140352326283238243700004F4B4E4DA8
:10212600015000000000594743203C2C033E0000AC
:10213600005157455254554900000000415344464A
:10214600484A0000000000825A585642000000002B
:102156000000838485860000000000000002875E80
:0A21660000000000000000000A4C19
:100CF300538ABFC2EB758D40439A10438C02D2AF27
:100D030022538ABFC2EB53BEFC3285D51C85D41D4A
:100D130090F79A7407F090F79B7407F090F79C7420
:100D230007F090F79D7407F090F79E7407F090F723
:100D33009F7407F090F7A07404F090F7A1E4F0908B
:100D4300F7A2F090F7A374DFF090F7A474BEF090CD
:100D5300F7A5E4F090F7A67407F090F7A77420F0D6
:100D630090F7A87442F053BEFBE5BE30E5FBAAC67C
:100D730074F85AF5F0744145F0F5C6E5C630E6FB64
:100D830043BE04120CF385D51C85D41D43D6817A4A
:100D93009A7BF78B0290F7A1EAF07A9A7BF790F7A8
:100DA300A2EAF07AA17BF78BD57AA17BF78AD47577
:100DB300D60143C70243BE07000000E5BE540370DB
:100DC30003020DCF75D701004387010053C7FD858B
:0E0DD3001CD5851DD475D601E5BE30E5FB228A
:0900DC00752B00752C00752F0036
:100DE100C0E0C082C083C0D075D008E52F6013AACF
:100DF1002B052BEA24A9F582E434F7F583E0F5D934
:100E01008020AA2B052BEA24A9F582E434F7F58387
:100E1100E5D9F07401B52B0A90F7A9E0FA74032A19
:100E2100F52CE52CB52B02C2A8D0D0D083D082D02E
:100E3100E032741055E9FAB40100E433F582227509
:100E41002CFF752B00752F0075E102D2A853E9EF35
:100E510022AA82AB83ACF030A80475820022754DC2
:100E6100AA754EF7754F00AD2C7E00ED24FDF550AF
:100E7100EE34FFF5518A828B838CF0121416E52C27
:100E810024A7F582E434F7F583E0F52DE52C14244D
:100E9100A9F582E434F7F583E0F52EE52C24FDF580
:100EA1008222AA82AB83ACF0C002C003C004120E3E
:100EB10040D004D003D0028A828B838CF0C002C060
:100EC10003C004120E52AD82D004D003D002EDFE55
:100ED10060E58E8222AA82AB83ACF0C002C003C05F
:100EE10004121AA6AD82D004D003D0020D90F7A946
:100EF100EDF0E0FD8D507551008A4D8B4E8C4F9079
:100F0100F7AA75F00012141690F7A9E004F52C75F4
:100F11002B00752F01C28975E10353E9EFD2A82295
:100F210090DF05E4F090DF127407F090DF13743066
:100F3100F090DF147418F090DF157417F090DF163D
:100F4100746CF090DF177403F090DF187440F09028
:100F5100DF197491F090DF0074D3F090DF01749188
:100F6100F090DF0274DEF090DF037404F090DF0490
:100F71007404F090DF237481F090DF247435F090D5
:100F8100DF257409F090DF27E4F090DF28F090DF8F
:100F910029F090DF06F090DF2AE4F090DF07740675
:100FA100F090DF08E4F090DF097422F090DF0A741A
:100FB10044F090DF0B74ECF090DF0C74F7F090DFED
:100FC1000D7443F090DF1A7456F090DF1B7410F02B
:100FD10090DF1C74E9F090DF1D742AF090DF1EE4AD
:100FE100F090DF1F741FF090DF0E7415F090DF0F8B
:100FF1007402F090DF1074F8F090DF117424F09017
:10100100DF2BE4F090DF2CF090DF2DF090DF2E74D9
:10101100C2F090DF2FE4F090DF30F090DF31F090FC
:10102100DF04E04401F090DF03E04404F075E104E3
:10103100D2AF22C374808530F063F08095F0500206
:10104100153022C3E53064808531F063F08095F07E
:101051005002053022AA823004078A82120CC7AAE4
:1010610082C3E531648094C95042E53104FBC3EB8E
:1010710064808530F063F08095F0401FEB248AFC9A
:10108100E434F8FDEB14FE248AF582E434F8F583A8
:10109100E0FF8C828D83F08E0380D3E530248AF5C6
:1010A10082E434F8F583EAF00530053122C3748017
:1010B1008530F063F08095F05044AA30E531FB3380
:1010C10095E0FC0BBB00010CEAFD3395E0FEC3ED9E
:1010D1009BEE64808CF063F08095F0501DEA14243F
:1010E1008AFBE434F8FCEA248AF582E434F8F583D7
:1010F100E0FD8B828C83F00A80C215301531227598
:10110100300075310090F88AE4F022C284758200C3
:101111001206577519007582061206347470C0E004
:101121007421C0E07480C0E01214F8158115811596
:101131008190F88A75F000120ED675190075820734
:101141001206347582381206B0D284120E33E5824B
:1011510060129000C81201E1C28475823D1206B08E
:10116100D28480E79001F41201E1C28475824412B5
:1011710006B0D2849001F41201E17532001211001F
:101181007582000200E8121100C204753200227556
:101191003300120677C28475820012065775190052
:1011A100758200120634747EC0E07421C0E0748040
:1011B100C0E01214F815811581158190F88A75F037
:1011C10000121AA6AB827C01C3EC648094884003B0
:1011D1000212FCEBFD3395E0FE74012DFFE43EF8B5
:1011E100E533F93395E0FAC3E99FEA648088F06357
:1011F100F08095F040030212FC7519008C82C00347
:10120100C004C005C006120634D006D005D004D0F3
:101211000374012DFDE43EFA7E00AF33C3EE64801A
:10122100949A40030212F6EFF83395E0F9C3E89D72
:10123100E964808AF063F08095F040030212F6EFD2
:10124100B50353EFB5300280030212F13004247567
:101251001A8075825EC002C003C004C005C006C00A
:101261000712070BD007D006D005D004D003D00257
:101271000212F1751A80758220C002C003C004C039
:1012810005C006C00712070BD007D006D005D00451
:10129100D003D002805AEFB5302EEF248AF582E4D4
:1012A10034F8F583E0F8751A808882C002C003C063
:1012B10004C005C006C00712070BD007D006D00531
:1012C100D004D003D0028028EF248AF582E434F8D8
:1012D100F583E0F582C002C003C004C005C006C0AA
:1012E100071206B0D007D006D005D004D003D00233
:1012F1000E0F02121D8F330C0211C97401B5321E7B
:101301007519007582051206347498C0E07421C005
:10131100E07480C0E01214F8158115811581300444
:101321001E75190075820712063474ABC0E0742172
:10133100C0E07480C0E01214F8158115811581D2C6
:101341008422AA82E53260030213B9BA0A02804CF0
:10135100BA2002802EBA2C028029BA3C028018BA27
:101361003E028019BA83028027BA8402801DBA86A0
:10137100351210AE02119012103402119012104465
:101381000211908A82121056021190B20402119039
:10139100300441758230121056021190753201C02D
:1013A10002121190D002BA41004029EA24A540243A
:1013B1008A821210560211907401B53217BA4E0288
:1013C100800CBA590F75320212119002110C75324C
:0513D100000211902252
:102170005472616E736D697474696E672100456E87
:1021800074657220796F7572206D65737361676510
:102190002062656C6F773A005265616C6C792073D0
:1021A000656E643F2028592F4E2900616C74206BA6
:0721B000657973206F6E00DA
:1013D60085825085835185F052AD4DAE4EAF4FA8F4
:1013E60050A951AA528D828E838FF0121ABEFBA38A
:1013F600AD82AE83888289838AF0EB12146EA3A82D
:1014060082A983EB70DF8550828551838552F02255
:0600B200E478FFF6D8FD22
:10141600AA82AB83ACF08A528B538C54A84DA94E4A
:10142600AD4F885589568D57A850A951880589060C
:1014360018B8FF0119ED4E602585558285568385BE
:1014460057F0121ABEFDA38582558583568A828B74
:10145600838CF0ED12146EA3AA82AB8380CE8552E4
:08146600828553838554F022B6
:100090007900E94400601B7A009021C278D47593FE
:1000A000F8E493F2A308B800020593D9F4DAF275E4
:0200B00093FFBC
:10146E0020F71030F6118883A88220F507F6A8839E
:10147E0075830022F280F7F022E54D454E60467AE4
:10148E0001E54D25E0F54DE54E334012F54EE58272
:10149E00954DE583954E40030A80E6C3E54E13F560
:1014AE004EE54D13F54DC3E582954DF5F0E583956B
:1014BE004E4005F58385F082C3E54E13F54EE54D9E
:0614CE0013F54DDAE122E6
:1000B8007800E84400600A79007593F0E4F309D801
:1000C800FC78D4E84408600C790990F000E4F0A3C7
:0400D800D8FCD9FA7D
:1014D400C01F85811F1206B0D01F228582438583D9
:1014E4004485F045E4F540F541F542851E469014E7
:1014F400D40215B8C01F85811FE51F24FBF546E4FF
:10150400F540F541F542E51F24FBF886430886447F
:101514000886459014D41215B8D01F22AA82C0366A
:10152400C037C0387437C0E07415C0E0C034C0356B
:101534008A8222158115811581053EE4B53E020596
:101544003F22AA8274302AFA24C6500A74072AFA5F
:101554003005034302208A82021520E582FAC4542E
:101564000FF582C002121546D002740F5AF582029A
:10157400154685824DAB39AC3AAD3BAE3CAF3D75BB
:101584004E20EF2FFFEE235401FA4207EB2BFBEC26
:1015940033FCED33FDEE33FEC3EF954D4008EFC34E
:1015A400954DFF430301D54ED98B398C3A8D3B8E33
:1015B4003C8F3D228582348583358540368541378D
:1015C400854238E4F53EF53FAA43AB44AC458A82F4
:1015D4008B838CF0121ABEFD74012AF543E43BF5AB
:1015E400448C45EDFA7003021A9FBA250280030267
:1015F4001A97C206C207C208C209C20AC20BC20CA9
:10160400C20D7547007548007DFFAE43AF44AB453E
:101614008E828F838BF0121ABEFAA3AE82AF838EB2
:10162400438F448B45BA25078A8212152080998AF4
:1016340004BC3000402A8A04EC24C64023BDFF13B6
:10164400E54875F00AA4FCEA24D02CF54870C1D210
:101654000780BDED75F00AA4FCEA24D02CFD80B00F
:10166400BA2E07BDFFAA7D0080A68A04BC61004093
:101674000E8A04EC248540075302DFD2058002C29F
:1016840005BA20028055BA2B02804BBA2D02804144
:10169400BA4202804BBA43028050BA44030218494A
:1016A400BA460302185FBA4903021849BA4C0280C9
:1016B40034BA4F03021850BA50030217E0BA530267
:1016C400804CBA5503021855BA580302185A021826
:1016D40063D206021614D208021614D20902161492
:1016E400D20B021614D20C021614300B0AE546145F
:1016F400F888468602800FE54624FEF8884686036D
:10170400088604188B028A8212152002186CE5469A
:1017140024FDF88846860308860408860618188B74
:10172400398C3A8E3B853982853A83853BF0C005F6
:10173400121AA6AB82AC83D005BDFF028B0520062E
:101744002CC3EB95485026E548C39BF548AC488C20
:10175400061C8C48EE6014758220C003C004C005CA
:10176400121520D005D004D00380E48C488D048564
:101774003982853A83853BF0121ABEFDFA602F8CBC
:10178400051CC374808DF063F08095F050208A822C
:10179400C003C004121520D004D003AD39AE3AAF53
:1017A4003B0DBD00010E8D398E3A8F3B80C1200662
:1017B4000302186CC3EB9548400302186CE548C358
:1017C4009BF548AC488C051C8C48ED700302186AE4
:1017D400758220C004121520D00480E9E54624FD5A
:1017E400F88846860508860608860718188D398EF7
:1017F4003A8F3BAD3BBD800040047A438014BD600A
:101804000040047A50800BBD400040047A498002B5
:101814007A588A82C00212152075823A12152075F0
:101824008230121520758278121520D002BA49022E
:10183400800BBA50028006853A8212155F85398280
:1018440012155F8023D20A75470A801C75470880E9
:101854001775470A8012754710800DD20D80098ACA
:101864008212152080028C48300D5AE54624FCF87B
:101874008846860408860508860608860718181808
:101884008C398D3A8E3B8F3C7539B7753A21753B4F
:101894008085394A853A4B853B4C7401254AFFE4DF
:1018A400354BFCAD4C8F398C3A8D3B854A82854B48
:1018B40083854CF0121ABEFCFA70030215CC8A829E
:1018C40012152080CCE54770030215CC75495D30B4
:1018D4000B2BE54614F88846E6FD3395E0FEFFFC45
:1018E4008D398E3A8F3B8C3C200A5EAC397D007E6C
:1018F400007F008C398D3A8E3B8F3C804C300C1F1E
:10190400E54624FCF8884686040886050886060809
:1019140086071818188C398D3A8E3B8F3C802AE53F
:101924004624FEF88846860408860518ED3395E0BB
:10193400FEFF8C398D3A8E3B8F3C200A0CAC39ADBE
:101944003A7E007F008E3B8F3C300A22E53C30E734
:101954001BC3E49539FCE4953AFDE4953BFEE4951C
:101964003CFF8C398D3A8E3B8F3C8002C20AD20EEA
:10197400A8497C00753D00854782C004C00012154B
:1019840076D000D004200E0DE53DC4FDE6FE4DF6F4
:101994001888498002A63D0C8C03B20EE539453AFD
:1019A400453B453C70CE88498C03E5487003754837
:1019B40001200724200621EB04FCAD48C3EC9D5014
:1019C40015758220C003C004C005121520D005D0AF
:1019D40004D0031D80E68D48300A0E75822DC003A5
:1019E400121520D00315488023EB602030080E75B3
:1019F400822BC003121520D0031548800F30090C28
:101A0400758220C003121520D0031548200624AC8B
:101A1400488C051C8C48C3EB9D502B3007047D304B
:101A240080027D208D82C003C004121520D004D012
:101A34000380DEC3EB95485008E548C39BF5488016
:101A44000775480080028C48A8498B041BEC60266B
:101A5400B20E200E0A08E6C4540FFC8C3D800786A3
:101A640004740F5CF53D853D82C003C00012154629
:101A7400D000D00380D42006030215CCAB488B04DD
:101A84001BEC70030215CC758220C003121520D004
:101A94000380EB8A821215200215CC853E82853F95
:021AA40083229B
:0B21B7003C4E4F20464C4F41543E0070
:101AA600AA82AB83121ABE6003A380F8C3E5829AAA
:081AB600F582E5839BF5832214
:0D00830075815D121B10E582600302007E96
:101ABE0020F71430F6148883A88220F507E6A88351
:101ACE0075830022E280F7E49322E022C2D5E583FB
:101ADE0030E70DD2D5E4C39582F582E49583F58384
:101AEE00E54E30E70BE4C3954DF54DE4954EF54EBE
:101AFE0012148730D50BE4C39582F582E49583F5F5
:061B0E0083227582002213
:00000001FF
