:06000000020083020E67FE
:01000B0032C2
:0100130032BA
:01001B0032B2
:0100230032AA
:01002B0032A2
:01003300329A
:01003B003292
:01004300328A
:01004B003282
:01005300327A
:01005B003272
:01006300326A
:01006B003262
:01007300325A
:03007B00020D8AE9
:0300E50002007E98
:05007E001201D880FE14
:1000E800858210E4B5100280077401B510088003FA
:1000F800020B4E02122022120D39E582FA700122FB
:10010800E5107016BA01028009BA030975100102D8
:100118001220D200228A82020BC47401B51016BACA
:1001280001028009BA0309751000020B4ED20022A1
:100138008A820213D322AA82AB83ACF0758200C0F4
:1001480002C003C0041206DDC2848511828513191A
:100158001206BA121588158115811581D284227567
:10016800C680E5C620E6FB75FE03900064120264B3
:10017800120FA7900064120264D291C290120EC6A8
:1001880090F00075F000120ED8E582700A900064B5
:10019800120264B29080E990F015E4F0C291C29026
:1001A80075E104900BB8120264C291D29090F000ED
:1001B80075F000120F5C120EB9E5826008900064B9
:1001C80012026480F175E10490006412026480A94F
:1001D800C200751000120167120250120630120692
:1001E8003D12065D120FA7121217120B42120B4E88
:1001F800120EC61200FF90F00075F000120ED8E53E
:1002080082602C1206FDE4F511F512F513F5149031
:100218001DE275F08012013E751102E4F512E4F555
:1002280013F51490F00075F00012013E120EC6305E
:1002380000C11206FD9003E8120264C2841206A8E7
:08024800D284120D930201D8CB
:101BA400000000000000005E0000000E000E00288F
:101BB4007C287C2808547C5420261008640028546F
:101BC40028400000000E0000003C42000000423C9F
:101BD4000000005438540010107C10100080602065
:101BE40000101010100000606000002010080400B5
:101BF400003C423C0000447E40004462524C0022BF
:101C04004A4A360018147E10002E4A4A32003C4AD2
:101C14004A300002621A0600344A4A34000C525216
:101C24003C00006C6C0000806C2C00000010284408
:101C340000282828280000442810000004520C0022
:101C44003C425A1C007C12127C007E4A4A34003CFE
:101C5400424224007E42423C007E4A4A42007E0ABE
:101C64000A02003C425274007E08087E0000427E54
:101C740042002040403E007E182442007E40404006
:101C8400007E0C0C7E007E0C307E003C42423C0008
:101C94007E12120C003C6242BC007E12324C0024C4
:101CA4004A52240000027E02003E40403E001E6074
:101CB400601E007E30307E006618186600000E70CC
:101CC4000E0062524A4600007E4242000408102080
:101CD400000042427E0000040204004040404000F4
:101CE400000204000030482878007E484830003064
:101CF400484800003048487E003068581000107C86
:101D040012040050A8A898007E0808700000487AC1
:101D140040000040807A007E1028400000427E404F
:101D240000781018700078080870003048483000B7
:101D3400F848483000304848F80078080810005047
:101D440058682800083E4840003840407800003871
:101D54004038007860607800483030480018A0406F
:101D64003800486858480000083C420000007E00E3
:101D74000000423C080053454E44494E47204D5311
:101D84004700434F524E204D554646494E002E00C3
:101D940053454E54212057414954494E472E2E0055
:101DA400256420627974657320525353493D256438
:101DB400204C51493D253032580053454E44494E3C
:101DC4004720414E4F5448455200504F4F50002534
:101DD400642025642025640053454E542100496E37
:101DE400636F6D696E67207472616E736D6973736E
:051DF400696F6E210083
:1002500053BEFBE5BE30E6FB53C6B8E5C620E6FB61
:1002600043BE0422AA82AB831ABAFF011BC3E49ADD
:1002700074808BF063F08095F0500F7CB07D041C8F
:10028000BCFF011DEC4D70F780DE22C37480851524
:10029000F063F08095F05002151522C3E5156480D7
:1002A0008516F063F08095F05002051522AA823081
:1002B00001078A82120D4DAA82C3E516648094C993
:1002C0005042E51604FBC3EB64808515F063F080B3
:1002D00095F0401FEB24DEFCE434F0FDEB14FE242B
:1002E000DEF582E434F0F583E0FF8C828D83F08EBE
:1002F0000380D3E51524DEF582E434F0F583EAF0DB
:100300000515051622C374808515F063F08095F0FD
:100310005044AA15E516FB3395E0FC0BBB00010C1D
:10032000EAFD3395E0FEC3ED9BEE64808CF063F054
:100330008095F0501DEA1424DEFBE434F0FCEA243E
:10034000DEF582E434F0F583E0FD8B828C83F00AE5
:1003500080C2151515162275150075160090F0DE71
:10036000E4F022C2847582001206DD7519007582E0
:10037000061206BA74F9C0E0741DC0E07480C0E0D3
:1003800012158815811581158190F0DE75F0001227
:100390000F5C7519007582071206BA75823812074C
:1003A00036D284120EB9E58260129000C81202643F
:1003B000C28475823D120736D28480E7120EC69041
:1003C00001F4120264C284758244120736D284900A
:1003D00001F41202647517001203577582000200BF
:1003E000E8120357C201751700227518001206FDA6
:1003F000C2847582001206DD75190075820012062E
:10040000BA7407C0E0741EC0E07480C0E0121588A2
:1004100015811581158190F0DE75F000121B36AB49
:10042000827C01C3EC648094884003020556EBFD96
:100430003395E0FE74012DFFE43EF8E518F933959D
:10044000E0FAC3E99FEA648088F063F08095F040A9
:10045000030205567519008C82C003C004C005C094
:10046000061206BAD006D005D004D00374012DFDC3
:10047000E43EFA7E00AF18C3EE6480949A40030213
:100480000550EFF83395E0F9C3E89DE964808AF000
:1004900063F08095F04003020550EFB50353EFB5CC
:1004A0001502800302054B300124751A8075825EA7
:1004B000C002C003C004C005C006C007120791D027
:1004C00007D006D005D004D003D00202054B751A20
:1004D00080758220C002C003C004C005C006C007EA
:1004E000120791D007D006D005D004D003D00280E7
:1004F0005AEFB5152EEF24DEF582E434F0F583E0F3
:10050000F8751A808882C002C003C004C005C00606
:10051000C007120791D007D006D005D004D003D071
:10052000028028EF24DEF582E434F0F583E0F582E2
:10053000C002C003C004C005C006C007120736D001
:1005400007D006D005D004D003D0020E0F020477E6
:100550008F180C0204237401B5171E7519007582DB
:10056000051206BA7421C0E0741EC0E07480C0E0B9
:1005700012158815811581158130011E75190075B8
:1005800082071206BA7434C0E0741EC0E07480C0E2
:10059000E0121588158115811581D28422AA82E581
:1005A000176003020613BA0A02804CBA2002802E9A
:1005B000BA2C028029BA3C028018BA3E028019BACD
:1005C00083028027BA8402801DBA86351203050291
:1005D00003EA12028B0203EA12029B0203EA8A82F6
:1005E0001202AD0203EAB2010203EA300141758250
:1005F000301202AD0203EA751701C0021203EAD0FD
:1006000002BA41004029EA24A540248A821202ADA0
:100610000203EA7401B51717BA4E02800CBA590FDB
:100620007517021203EA0203637517000203EA2238
:101DF9005472616E736D697474696E672100456E02
:101E090074657220796F7572206D6573736167658A
:101E19002062656C6F773A005265616C6C7920734A
:101E2900656E643F2028592F4E2900616C74206B20
:071E3900657973206F6E0054
:1006300043F32843FD1443FE0275FF18227586001C
:1006400075C2AA75C530228582C1E58630E1FB53AB
:1006500086FD22D282020647C282020647C29190DC
:100660000001120264D291C2847582E212065875AA
:10067000822412065875828112065875826012060D
:10068000587582E612065875820012065875822F38
:100690001206587582A11206587582AF1206587557
:1006A00082A4120658D284227582AC120658758232
:1006B000AE1206587582A5020658AA8274B02AF5B1
:1006C00082120658740F5519F582120658E519C49E
:1006D000540FFA740F5A2410F582020658AA827435
:1006E0003F5AF5F0744045F0F582020658AA82742C
:1006F000015AF5F074A645F0F582020658C28475D9
:1007000082001206DD7582001206ED7A00EA24F6F8
:1007100040217519008A82C0021206BAD0027B8479
:10072000758200C002C003120653D003D002DBF072
:100730000A80DAD28422AA8253027FC3EA648094B8
:10074000A0404DEA24E0C2D575F00530E704B2D5EB
:10075000F404A430D50AF42401C5F0F43400C5F043
:10076000FAABF07C00BC05005026EA2440FDEB34D7
:100770001EFEEC2DF582E43EF583E493F582C00283
:10078000C003C004120653D004D003D0020C80D59D
:1007900022AA8253027FC3EA648094A04051EA24D3
:1007A000E0C2D575F00530E704B2D5F404A430D525
:1007B0000AF42401C5F0F43400C5F0FAABF07C0073
:1007C000BC0500502AEA2440FDEB341EFEEC2DF55A
:1007D00082E43EF583E493FDE51A4DF582C002C044
:1007E00003C004120653D004D003D0020C80D122DF
:101E4000000000000000005E0000000E000E0028F0
:101E50007C287C2808547C542026100864002854D0
:101E600028400000000E0000003C42000000423C00
:101E70000000005438540010107C101000806020C6
:101E80000010101010000060600000201008040016
:101E9000003C423C0000447E40004462524C002220
:101EA0004A4A360018147E10002E4A4A32003C4A34
:101EB0004A300002621A0600344A4A34000C525278
:101EC0003C00006C6C0000806C2C0000001028446A
:101ED00000282828280000442810000004520C0084
:101EE0003C425A1C007C12127C007E4A4A34003C60
:101EF000424224007E42423C007E4A4A42007E0A20
:101F00000A02003C425274007E08087E0000427EB5
:101F100042002040403E007E182442007E40404067
:101F2000007E0C0C7E007E0C307E003C42423C0069
:101F30007E12120C003C6242BC007E12324C002425
:101F40004A52240000027E02003E40403E001E60D5
:101F5000601E007E30307E006618186600000E702D
:101F60000E0062524A4600007E42420004081020E1
:101F7000000042427E000004020400404040400055
:101F8000000204000030482878007E4848300030C5
:101F9000484800003048487E003068581000107CE7
:101FA00012040050A8A898007E0808700000487A23
:101FB00040000040807A007E1028400000427E40B1
:101FC0000078101870007808087000304848300019
:101FD000F848483000304848F800780808100050A9
:101FE00058682800083E48400038404078000038D3
:101FF0004038007860607800483030480018A040D1
:102000003800486858480000083C420000007E0044
:062010000000423C080044
:1007F00085822685832785F028121B36AD828D29B8
:10080000C202C2847582001206DDE52924E6400298
:10081000D2027519008525821206BA752A00780061
:1008200074E7252A404DE895295048300222E825F2
:1008300026F9E43527FFAD2889828F838DF0121BBE
:100840004EF9751A808982C000120791D000801C71
:10085000E82526FDE43527FFA9288D828F8389F0BE
:10086000121B4EF582C000120736D000052A0888F8
:100870000680AD880630021BAD2ABD1900501475E4
:100880001A80758220C005C006120791D006D005D7
:100890000D80E705257582FFC0061206537582801C
:1008A000120653D006744A2526FDE43527FFA828F2
:1008B0008D828F8388F0121B4EFD30E122ED30E2F5
:1008C0000F751A8075824DC006120791D006802FD1
:1008D000751A8075823FC006120791D0068020ED00
:1008E00030E00F751A8075822AC006120791D00673
:1008F000800D751A80758220C006120791D006AD52
:1009000025BD080040030209E3C3EE952940030218
:1009100009E3AF297800EF24E6FFE834FFF88E0101
:100920007A00C3E99FEA648088F063F08095F04024
:1009300002D2027519008D82C005C0061206BAD017
:1009400006D0057A008E03BA1A00505DC3EB9529D4
:10095000505730022AEB2526FCE43527FFA8288CC7
:10096000828F8388F0121B4EFC751A808C82C00225
:10097000C003C005120791D005D003D0028024EB3C
:100980002526FCE43527FFA8288C828F8388F01267
:100990001B4EF582C002C003C005120736D005D039
:1009A00003D0020A0B8B06809E8B06300231BA1AE6
:1009B000005018751A80758220C002C005C006124A
:1009C0000791D006D005D0020A80E3758280C00569
:1009D000C006120653758280120653D006D0050D4C
:1009E000020901D2848D8222E524B5220122E5226A
:1009F00075F04BA42428FA74F135F0FB744A2AFAF6
:100A0000E43BFB8A828B83E0FC5304FE8A828B8367
:100A1000ECF0AA227B008A828B83A3754D16E4F545
:100A20004E121B6AAA828A2222E523B5220122AA3B
:100A3000227B0074152AF582E43BF583754D16E49C
:100A4000F54E121B6AAA828A2222754D16754E2017
:100A5000754F8090F5D875F00012146690F622E478
:100A6000F0754D3D754E20754F8090F62375F00062
:100A700012146690F66DE4F0754D69754E20754F51
:100A80008090F66E75F00012146690F6B87407F058
:100A9000754D8E754E20754F8090F6B975F0001229
:100AA000146690F7037401F0754DD4754E20754FA0
:100AB0008090F70475F00012146690F74E7401F000
:100AC000754DFA754E20754F8090F74F75F00012F6
:100AD000146690F7997403F0754D12754E21754F99
:100AE0008090F12875F00012146690F1727401F094
:100AF000754D3F754E21754F8090F17375F0001262
:100B0000146690F1BD7401F0754D72754E21754FEC
:100B10008090F1BE75F00012146690F2087401F036
:100B2000754D95754E21754F8090F20975F0001244
:100B3000146690F2537401F0752212752310752417
:100B40000322752200752300752400020A4A12064A
:100B5000FD7A00AB22AC247D008C828D83A3754D81
:100B600016E4F54EC002C003121B6AAC82AD83D0FE
:100B700003D0028B067F00EEB50405EFB505012218
:100B8000BA0800503EEB75F04BA42428FC74F135F4
:100B9000F0FD78008A258C828D8388F0C006C0071E
:100BA0001207F0AA82D007D0068E828F83A3754DDC
:100BB00016E4F54EC002121B6AAC82AD83D0028CE3
:100BC00003809222AA82BA3C02800FBA3E028010B1
:100BD000BA5E028005BA870E8006120A29020B4E01
:070BE0001209E8020B4E228E
:102016004D415454204953204120444F524B2E20C9
:1020260020414C534F20484520534D454C4C53209E
:1020360046554E4E592E0044494E4E455220534564
:102046005256494E4720494E203330204D494E5571
:102056005445532C20534C4F5020464F5220414C50
:102066004C2E004D41535349564520574849544537
:102076004F555420434F4D494E472C2054414B4514
:1020860020434F564552210054484953204D45534D
:1020960053414745204953204C4F4E472C20544F1F
:1020A6002054455354204F5554204C4F4E47204DF5
:1020B600455353414745532E202049542049532028
:1020C60033204C494E4553204C4F4E472E00535714
:1020D600454554204C45495453484F572053544185
:1020E6005254494E4720494E203232204D494E55D2
:1020F6005445530057494C4420454C4D4F204841C8
:10210600532041505045415245442E00534E454CB4
:102116004C412043414D45204259205448452044D6
:102126004F4D4520414E442041544520414C4C20C2
:1021360054484520464F4F4400414E594F4E452086
:1021460057414E5420544F2054494D452054524136
:1021560056454C3F20204C454156494E4720352098
:102166004D494E555445532041474F00544F494C15
:102176004554532041524520414C4C2046554C4C29
:102186002023504F4F5054524F55424C4553004810
:10219600454E5259204841532041205354494E4BF5
:0721A600592042555454007A
:100BE70053FD3D53FE034380C24390FC9000011226
:100BF70002647A007B00BB08004003020D0BEBFC8C
:100C070024F84057EB2B2B900C1273020C2A020C82
:100C17002C020C34020C3C020C44020C4C020C5407
:100C2700020C5C803643FD025380FD802E43FE0498
:100C37005390FB802643FE085390F7801E43FE1017
:100C47005390EF801643FE205390DF800E43FE4003
:100C57005390BF800643FE8053907FAD807E00EDAA
:100C6700F4FDEEF4FEED30E1027C01AD907E00ED87
:100C7700F4FDEEF4FEED30E2027C02AD907E00ED75
:100C8700F4FDEEF4FEED30E3027C03AD907E00ED63
:100C9700F4FDEEF4FEED30E4027C04AD907E00ED51
:100CA700F4FDEEF4FEED30E5027C05AD907E00ED3F
:100CB700F4FDEEF4FEED30E6027C06AD907E00ED2D
:100CC700F4FDEEF4FEED30E7027C07AD807E00ED2B
:100CD700F4FDEEF4FEED30E6027C08AD807E00ED1B
:100CE700F4FDEEF4FEED30E7027C09ECB50302807B
:100CF7000DEA75F00AA42C9021C793F582220B8B7D
:100D070002020BFD75820022120BE7AA82C00212B3
:100D17000BE7AB82D002EAB503028007120BE7AA02
:100D27008280EA53FD3D53FE034380C24390FC8A11
:100D37008222120D0FE582FAB51B0280048A1B80FE
:100D4700027A008A8222AA82BA2C0475823F22BACA
:100D570041004014EA24A5400FEA246CF582E434EC
:100D670021F583E493F58222BA8304758230228ABF
:020D77008222D6
:1021AD0034293936335C5F3A2D3B22272E212B3DC6
:1021BD003140352326283238243700004F4B4E4D01
:1021CD00015000000000594743203C2C033E000005
:1021DD0000515745525455490000000041534446A3
:1021ED00484A0000000000825A5856420000000084
:1021FD000000838485860000000000000002875ED9
:0A220D0000000000000000000A4C71
:100D7900538ABFC2EB758D40439A10438C02D2AFA0
:100D890022538ABFC2EB53BEFC3285D51C85D41DC4
:100D990090F79A7407F090F79B7407F090F79C749A
:100DA90007F090F79D7407F090F79E7407F090F79D
:100DB9009F7407F090F7A07404F090F7A1E4F09005
:100DC900F7A2F090F7A374DFF090F7A474BEF09047
:100DD900F7A5E4F090F7A67407F090F7A77420F050
:100DE90090F7A87442F053BEFBE5BE30E5FBAAC6F6
:100DF90074F85AF5F0744145F0F5C6E5C630E6FBDE
:100E090043BE04120D7985D51C85D41D43D6817A3C
:100E19009A7BF78B0290F7A1EAF07A9A7BF790F721
:100E2900A2EAF07AA17BF78BD57AA17BF78AD475F0
:100E3900D60143C70243BE07000000E5BE54037054
:100E490003020E5575D701004387010053C7FD857D
:0E0E59001CD5851DD475D601E5BE30E5FB2203
:0900DC00752B00752C00752F0036
:100E6700C0E0C082C083C0D075D008E52F6013AA48
:100E77002B052BEA24A9F582E434F7F583E0F5D9AD
:100E87008020AA2B052BEA24A9F582E434F7F58301
:100E9700E5D9F07401B52B0A90F7A9E0FA74032A93
:100EA700F52CE52CB52B02C2A8D0D0D083D082D0A8
:100EB700E032741055E9FAB40100E433F582227583
:100EC7002CFF752B00752F0075E102D2A853E9EFAF
:100ED70022AA82AB83ACF030A80475820022754D3C
:100EE700AA754EF7754F00AD2C7E00ED24FDF55029
:100EF700EE34FFF5518A828B838CF01214A6E52C11
:100F070024A7F582E434F7F583E0F52DE52C1424C6
:100F1700A9F582E434F7F583E0F52EE52C24FDF5F9
:100F27008222AA82AB83ACF0C002C003C004120EB7
:100F3700C6D004D003D0028A828B838CF0C002C053
:100F470003C004120ED8AD82D004D003D002EDFE48
:100F570060E58E8222AA82AB83ACF0C002C003C0D8
:100F670004121B36AD82D004D003D0020D90F7A92E
:100F7700EDF0E0FD8D507551008A4D8B4E8C4F90F2
:100F8700F7AA75F0001214A690F7A9E004F52C75DE
:100F97002B00752F01C28975E10353E9EFD2A8220F
:100FA70090DF05E4F090DF127407F090DF137430E0
:100FB700F090DF147418F090DF157417F090DF16B7
:100FC700746CF090DF177403F090DF187440F090A2
:100FD700DF197491F090DF0074D3F090DF01749102
:100FE700F090DF0274DEF090DF037404F090DF040A
:100FF7007404F090DF237481F090DF247435F0904F
:10100700DF257409F090DF27E4F090DF28F090DF08
:1010170029F090DF06F090DF2AE4F090DF077406EE
:10102700F090DF08E4F090DF097422F090DF0A7493
:1010370044F090DF0B74ECF090DF0C74F7F090DF66
:101047000D7443F090DF1A7456F090DF1B7410F0A4
:1010570090DF1C74E9F090DF1D742AF090DF1EE426
:10106700F090DF1F741FF090DF0E7415F090DF0F04
:101077007402F090DF1074F8F090DF117424F09090
:10108700DF2BE4F090DF2CF090DF2DF090DF2E7453
:10109700C2F090DF2FE4F090DF30F090DF31F09076
:1010A700DF04E04401F090DF03E04404F090DF0345
:1010B700E04440F075E104D2AF22C374808530F07C
:1010C70063F08095F05002153022C3E530648085C7
:1010D70031F063F08095F05002053022AA82300388
:1010E700078A82120D4DAA82C3E531648094C950E4
:1010F70042E53104FBC3EB64808530F063F08095F3
:10110700F0401FEB248AFCE434F8FDEB14FE248A3C
:10111700F582E434F8F583E0FF8C828D83F08E034B
:1011270080D3E530248AF582E434F8F583EAF005C4
:1011370030053122C374808530F063F08095F0501C
:1011470044AA30E531FB3395E0FC0BBB00010CEA08
:10115700FD3395E0FEC3ED9BEE64808CF063F08079
:1011670095F0501DEA14248AFBE434F8FCEA248A3B
:10117700F582E434F8F583E0FD8B828C83F00A80F6
:10118700C2153015312275300075310090F88AE4A8
:10119700F022C2847582001206DD75190075820679
:1011A7001206BA7417C0E07422C0E07480C0E0125F
:1011B700158815811581158190F88A75F000120F31
:1011C7005C7519007582071206BA758238120736E0
:1011D700D284120EB9E58260129000C8120264C26E
:1011E7008475823D120736D28480E7120EC69001BD
:1011F700F4120264C284758244120736D2849001C5
:10120700F412026475320012118D7582000200E833
:1012170012118DC203753200227533001206FDC20A
:10122700847582001206DD7519007582001206BAF0
:101237007425C0E07422C0E07480C0E012158815E0
:10124700811581158190F88A75F000121B36AB82E3
:101257007C01C3EC64809488400302138CEBFD335C
:1012670095E0FE74012DFFE43EF8E533F93395E090
:10127700FAC3E99FEA648088F063F08095F0400341
:1012870002138C7519008C82C003C004C005C00608
:101297001206BAD006D005D004D00374012DFDE4A0
:1012A7003EFA7E00AF33C3EE6480949A4003021384
:1012B70086EFF83395E0F9C3E89DE964808AF06327
:1012C700F08095F04003021386EFB50353EFB53076
:1012D700028003021381300324751A8075825EC071
:1012E70002C003C004C005C006C007120791D0079B
:1012F700D006D005D004D003D002021381751A801E
:10130700758220C002C003C004C005C006C0071212
:101317000791D007D006D005D004D003D002805A59
:10132700EFB5302EEF248AF582E434F8F583E0F840
:10133700751A808882C002C003C004C005C006C0F9
:1013470007120791D007D006D005D004D003D002EA
:101357008028EF248AF582E434F8F583E0F582C02B
:1013670002C003C004C005C006C007120736D00775
:10137700D006D005D004D003D0020E0F0212AD8FD5
:10138700330C0212597401B5321E751900758205A6
:101397001206BA743FC0E07422C0E07480C0E01245
:1013A700158815811581158130031E751900758201
:1013B700071206BA7452C0E07422C0E07480C0E01D
:1013C700121588158115811581D28422AA82E532EA
:1013D7006003021449BA0A02804CBA2002802EBA6E
:1013E7002C028029BA3C028018BA3E028019BA83BF
:1013F700028027BA8402801DBA863512113B021279
:10140700201210C10212201210D10212208A821259
:1014170010E3021220B2030212203003417582301A
:101427001210E3021220753201C002121220D002FC
:10143700BA41004029EA24A540248A821210E30217
:1014470012207401B53217BA4E02800CBA590F75C3
:0F14570032021212200211997532000212202265
:102217005472616E736D697474696E672100456EDF
:1022270074657220796F7572206D65737361676568
:102237002062656C6F773A005265616C6C79207328
:10224700656E643F2028592F4E2900616C74206BFE
:07225700657973206F6E0032
:1014660085825085835185F052AD4DAE4EAF4FA863
:1014760050A951AA528D828E838FF0121B4EFBA368
:10148600AD82AE83888289838AF0EB1214FEA3A80C
:1014960082A983EB70DF8550828551838552F022C5
:0600B200E478FFF6D8FD22
:1014A600AA82AB83ACF08A528B538C54A84DA94EBA
:1014B600AD4F885589568D57A850A951880589067C
:1014C60018B8FF0119ED4E6025855582855683852E
:1014D60057F0121B4EFDA38582558583568A828B53
:1014E600838CF0ED1214FEA3AA82AB8380CE8552C4
:0814F600828553838554F02226
:100090007900E94400601B7A0090226978D4759356
:1000A000F8E493F2A308B800020593D9F4DAF275E4
:0200B00093FFBC
:1014FE0020F71030F6118883A88220F507F6A8830E
:10150E0075830022F280F7F022E54D454E60467A53
:10151E0001E54D25E0F54DE54E334012F54EE582E1
:10152E00954DE583954E40030A80E6C3E54E13F5CF
:10153E004EE54D13F54DC3E582954DF5F0E58395DA
:10154E004E4005F58385F082C3E54E13F54EE54D0D
:06155E0013F54DDAE12255
:1000B8007800E84400600A79007593F0E4F309D801
:1000C800FC78D4E84408600C790990F000E4F0A3C7
:0400D800D8FCD9FA7D
:10156400C01F85811F120736D01F228582438583C1
:101574004485F045E4F540F541F542851E46901555
:1015840064021648C01F85811FE51F24FBF546E44D
:10159400F540F541F542E51F24FBF88643088644EF
:1015A400088645901564121648D01F22AA82C036B8
:1015B400C037C03874C7C0E07415C0E0C034C0354B
:1015C4008A8222158115811581053EE4B53E020506
:1015D4003F22AA8274302AFA24C6500A74072AFACF
:1015E4003004034302208A820215B0E582FAC4540F
:1015F4000FF582C0021215D6D002740F5AF582027A
:1016040015D685824DAB39AC3AAD3BAE3CAF3D759A
:101614004E20EF2FFFEE235401FA4207EB2BFBEC95
:1016240033FCED33FDEE33FEC3EF954D4008EFC3BD
:10163400954DFF430301D54ED98B398C3A8D3B8EA2
:101644003C8F3D22858234858335854036854137FC
:10165400854238E4F53EF53FAA43AB44AC458A8263
:101664008B838CF0121B4EFD74012AF543E43BF589
:10167400448C45EDFA7003021B2FBA250280030245
:101684001B27C205C206C207C208C209C20AC20B8E
:10169400C20C7547007548007DFFAE43AF44AB45AF
:1016A4008E828F838BF0121B4EFAA3AE82AF838E91
:1016B400438F448B45BA25078A821215B080998AD4
:1016C40004BC3000402A8A04EC24C64023BDFF1326
:1016D400E54875F00AA4FCEA24D02CF54870C1D280
:1016E4000680BDED75F00AA4FCEA24D02CFD80B080
:1016F400BA2E07BDFFAA7D0080A68A04BC61004003
:101704000E8A04EC248540075302DFD2048002C20F
:1017140004BA20028055BA2B02804BBA2D028041B4
:10172400BA4202804BBA43028050BA44030218D929
:10173400BA46030218EFBA49030218D9BA4C028018
:1017440034BA4F030218E0BA5003021870BA5302B5
:10175400804CBA55030218E5BA58030218EA021875
:10176400F3D2050216A4D2070216A4D2080216A4C4
:10177400D20A0216A4D20B0216A4300A0AE54614B1
:10178400F888468602800FE54624FEF888468603DC
:10179400088604188B028A821215B00218FCE546EA
:1017A40024FDF88846860308860408860618188BE4
:1017B400398C3A8E3B853982853A83853BF0C00566
:1017C400121B36AB82AC83D005BDFF028B0520050E
:1017D4002CC3EB95485026E548C39BF548AC488C90
:1017E400061C8C48EE6014758220C003C004C0053A
:1017F4001215B0D005D004D00380E48C488D048544
:101804003982853A83853BF0121B4EFDFA602F8C9A
:10181400051CC374808DF063F08095F050208A829B
:10182400C003C0041215B0D004D003AD39AE3AAF32
:101834003B0DBD00010E8D398E3A8F3B80C12005D2
:10184400030218FCC3EB954840030218FCE548C3A7
:101854009BF548AC488C051C8C48ED70030218FAC3
:10186400758220C0041215B0D00480E9E54624FD39
:10187400F88846860508860608860718188D398E66
:101884003A8F3BAD3BBD800040047A438014BD6079
:101894000040047A50800BBD400040047A49800225
:1018A4007A588A82C0021215B075823A1215B07540
:1018B40082301215B07582781215B0D002BA49027E
:1018C400800BBA50028006853A821215EF85398260
:1018D4001215EF8023D20975470A801C75470880CA
:1018E4001775470A8012754710800DD20C80098A3B
:1018F400821215B080028C48300C5AE54624FCF85C
:101904008846860408860508860608860718181877
:101914008C398D3A8E3B8F3C75395E753A22753B16
:101924008085394A853A4B853B4C7401254AFFE44E
:10193400354BFCAD4C8F398C3A8D3B854A82854BB7
:1019440083854CF0121B4EFCFA700302165C8A82EB
:101954001215B080CCE547700302165C75495D3002
:101964000A2BE54614F88846E6FD3395E0FEFFFCB5
:101974008D398E3A8F3B8C3C20095EAC397D007EDC
:10198400007F008C398D3A8E3B8F3C804C300B1F8E
:10199400E54624FCF8884686040886050886060879
:1019A40086071818188C398D3A8E3B8F3C802AE5AF
:1019B4004624FEF88846860408860518ED3395E02B
:1019C400FEFF8C398D3A8E3B8F3C20090CAC39AD2F
:1019D4003A7E007F008E3B8F3C300922E53C30E7A5
:1019E4001BC3E49539FCE4953AFDE4953BFEE4958C
:1019F4003CFF8C398D3A8E3B8F3C8002C209D20D5C
:101A0400A8497C00753D00854782C004C0001216B9
:101A140006D000D004200D0DE53DC4FDE6FE4DF6D4
:101A24001888498002A63D0C8C03B20DE539453A6D
:101A3400453B453C70CE88498C03E54870037548A6
:101A440001200624200521EB04FCAD48C3EC9D5085
:101A540015758220C003C004C0051215B0D005D08E
:101A640004D0031D80E68D4830090E75822DC00315
:101A74001215B0D00315488023EB602030070E7593
:101A8400822BC0031215B0D0031548800F30080C08
:101A9400758220C0031215B0D0031548200524AC6C
:101AA400488C051C8C48C3EB9D502B3006047D30BC
:101AB40080027D208D82C003C0041215B0D004D0F2
:101AC4000380DEC3EB95485008E548C39BF5488086
:101AD4000775480080028C48A8498B041BEC6026DB
:101AE400B20D200D0A08E6C4540FFC8C3D80078615
:101AF40004740F5CF53D853D82C003C0001215D609
:101B0400D000D00380D420050302165CAB488B04BC
:101B14001BEC700302165C758220C0031215B0D052
:101B24000380EB8A821215B002165C853E82853FE3
:021B340083220A
:0B225E003C4E4F20464C4F41543E00C8
:101B3600AA82AB83121B4E6003A380F8C3E5829A88
:081B4600F582E5839BF5832283
:0D00830075815D121BA0E582600302007E06
:101B4E0020F71430F6148883A88220F507E6A883C0
:101B5E0075830022E280F7E49322E022C2D5E5836A
:101B6E0030E70DD2D5E4C39582F582E49583F583F3
:101B7E00E54E30E70BE4C3954DF54DE4954EF54E2D
:101B8E0012151730D50BE4C39582F582E49583F5D3
:061B9E0083227582002283
:00000001FF
